:100000000C9462000C948A000C948A000C948A0070
:100010000C948A000C948A000C948A000C948A0038
:100020000C948A000C948A000C948A000C948A0028
:100030000C948A000C948A000C948A000C948A0018
:100040000C9410030C948A000C9480030C945A03B3
:100050000C948A000C948A000C948A000C948A00F8
:100060000C948A000C948A000000000024002700F1
:100070002A0000000000250028002B0000000000DE
:1000800023002600290004040404040404040202DA
:100090000202020203030303030301020408102007
:1000A0004080010204081020010204081020000012
:1000B0000008000201000003040700000000000027
:1000C0000000B20311241FBECFEFD8E0DEBFCDBFCA
:1000D00011E0A0E0B1E0E6E0F5E102C005900D928C
:1000E000A437B107D9F722E0A4E7B1E001C01D921F
:1000F000A639B207E1F710E0C2E6D0E004C02197CC
:10010000FE010E949E07C136D107C9F70E94410433
:100110000C94810A0C94000096E0899FD001112470
:10012000A95DBD4F90967C936E935F9791E09196F9
:100130009C93919790919302E0919402F091950293
:10014000992339F0309751F0811108C08091430212
:1001500004C0309719F05C968C910994089583300F
:1001600081F028F4813099F08230A1F00895873031
:10017000A9F08830B9F08430D1F4809180008F7D6F
:1001800003C0809180008F7780938000089584B5AC
:100190008F7702C084B58F7D84BD08958091B000B3
:1001A0008F7703C08091B0008F7D8093B000089559
:1001B000CF93DF93282F30E0F901E255FF4F849170
:1001C000F901E656FF4FD491F901EA57FF4FC49168
:1001D000CC2391F081110E94AF00EC2FF0E0EE0FE4
:1001E000FF1FE458FF4FA591B491EC91ED2381E0FE
:1001F00090E021F480E002C080E090E0DF91CF91B8
:1002000008951F93CF93DF93282F30E0F901E25533
:10021000FF4F8491F901E656FF4FD491F901EA5757
:10022000FF4FC491CC23C9F0162F81110E94AF005B
:10023000EC2FF0E0EE0FFF1FEE58FF4FA591B491A9
:100240008FB7F894111105C09C91ED2FE095E9232B
:1002500002C0EC91ED2BEC938FBFDF91CF911F91FA
:100260000895CF93DF9390E0FC01E656FF4F249171
:10027000FC01EA57FF4F8491882361F190E0880FD9
:10028000991FFC01E859FF4FC591D491FC01EE582C
:10029000FF4FA591B491611109C09FB7F89488816F
:1002A000209582238883EC912E230BC0623061F469
:1002B0009FB7F8943881822F809583238883EC91AF
:1002C0002E2B2C939FBF06C08FB7F894E8812E2B5E
:1002D00028838FBFDF91CF9108952FB7F894609155
:1002E00086017091870180918801909189012FBFCB
:1002F00008950F931F93CF93DF93C82FD62F86E0D7
:10030000C89FF0011124E95DFD4F11A2878D90A1D6
:1003100081309105F1F01CF4892B49F043C0823003
:100320009105A9F10397F1F560E070E034C0662310
:10033000C9F161E070E08C2F0E948C000E946D0179
:1003400060937F0270938002809381029093820277
:1003500029C00E946D0100917F02109180022091BE
:10036000810230918202AB01BC01401B510B620B38
:10037000730B8091910290919202A0E0B0E08417FB
:100380009507A607B70718F462E070E004C0D11122
:1003900009C063E070E08C2FDF91CF911F910F9126
:1003A0000C948C00DF91CF911F910F910895862FAF
:1003B000642F0C943101862F642F0C940101862F39
:1003C0000C94D800FC01538D448D252F30E0842FF0
:1003D00090E0821B930B541710F0CF96089501976D
:1003E0000895FC01918D828D981761F0828DDF0157
:1003F000A80FB11D5D968C91928D9F5F9F73928F18
:1004000090E008958FEF9FEF0895FC01918D828D0C
:10041000981731F0828DE80FF11D858D90E00895D9
:100420008FEF9FEF0895FC01918D228D892F90E031
:10043000805C9F4F821B91098F73992708958AE8EA
:1004400091E00E94130221E0892B09F420E0822F21
:100450000895FC01848DDF01A80FB11DA35ABF4F81
:100460002C91848D90E001968F739927848FA689B3
:10047000B7892C93A089B1898C9180648C93938DDA
:10048000848D981306C00288F389E02D80818F7DCA
:1004900080830895EF92FF920F931F93CF93DF9382
:1004A000EC0181E0888F9B8D8C8D981305C0E889C5
:1004B000F989808185FD24C0F62E0B8D10E00F5F39
:1004C0001F4F0F731127E02E8C8DE8120CC00FB652
:1004D00007FCFACFE889F989808185FFF5CFCE0145
:1004E0000E942902F1CF8B8DFE01E80FF11DE35A26
:1004F000FF4FF0820B8FEA89FB898081806207C001
:10050000EE89FF896083E889F9898081806480832E
:1005100081E090E0DF91CF911F910F91FF90EF90DC
:100520000895CF93DF93EC01888D8823C9F0EA8981
:10053000FB89808185FD05C0A889B9898C9186FDDC
:100540000FC00FB607FCF5CF808185FFF2CFA889D9
:10055000B9898C9185FFEDCFCE010E942902E7CFAA
:10056000DF91CF91089580E090E0892B29F00E94DF
:100570001F0281110C9400000895CF92DF92EF9238
:10058000FF920F931F93CF93DF936C017A018B013E
:10059000C0E0D0E0CE15DF0589F0D8016D918D0166
:1005A000D601ED91FC910190F081E02DC6010995F5
:1005B000892B11F47E0102C02196ECCFC701DF9197
:1005C000CF911F910F91FF90EF90DF90CF90089502
:1005D000089580E090E00895CF93DF93009779F03D
:1005E000FC0101900020E9F73197AF01481B590B3E
:1005F000BC018AE891E00E94BD02EC0102C0C0E0AB
:10060000D0E042E050E06CE671E08AE891E00E94C0
:10061000BD028C0F9D1FDF91CF9108950E94A4070A
:100620001F920F920FB60F9211242F933F938F9327
:100630009F93AF93BF938091860190918701A09182
:100640008801B09189013091850123E0230F2D3776
:1006500020F40196A11DB11D05C026E8230F0296C6
:10066000A11DB11D20938501809386019093870180
:10067000A0938801B09389018091810190918201BA
:10068000A0918301B09184010196A11DB11D8093B9
:10069000810190938201A0938301B0938401BF9163
:1006A000AF919F918F913F912F910F900FBE0F901F
:1006B0001F9018951F920F920FB60F9211242F932F
:1006C0003F934F935F936F937F938F939F93AF93DA
:1006D000BF93EF93FF938AE891E00E942902FF9174
:1006E000EF91BF91AF919F918F917F916F915F91AA
:1006F0004F913F912F910F900FBE0F901F90189523
:100700001F920F920FB60F9211242F938F939F93E6
:10071000EF93FF93E0919A01F0919B018081E0912A
:10072000A001F091A10182FD12C090818091A301EE
:100730008F5F8F732091A401821751F0E091A30184
:10074000F0E0E657FE4F958F8093A30101C08081B2
:10075000FF91EF919F918F912F910F900FBE0F906E
:100760001F90189510928D0110928C0188EE93E0E5
:10077000A0E0B0E080938E0190938F01A093900150
:10078000B093910184E591E090938B0180938A016D
:1007900085EC90E0909397018093960184EC90E033
:1007A000909399018093980180EC90E090939B0145
:1007B00080939A0181EC90E090939D0180939C013D
:1007C00082EC90E090939F0180939E0186EC90E0F4
:1007D0009093A1018093A0011092A3011092A40113
:1007E0001092A5011092A6011092290210922D02DA
:1007F00010922C0210922E0286E691E0909328022D
:100800008093270280E090E0FC01E95DFD4F148EAB
:1008100010A2178E11A206968C339105A9F788E0D5
:1008200091E090938A028093890280E091E0909316
:100830008C0280938B0288E080938D0280938E02DD
:1008400080E191E090938802809387028AE090E0B3
:100850009093900280938F0284EF91E090939202A4
:10086000809391021092950210929402109283024A
:1008700010928402109285021092860210929302C6
:100880000895789484B5826084BD84B5816084BD08
:1008900085B5826085BD85B5816085BD80916E001E
:1008A000816080936E00109281008091810082604F
:1008B000809381008091810081608093810080918C
:1008C00080008160809380008091B100846080937B
:1008D000B1008091B00081608093B00080917A0077
:1008E000846080937A0080917A00826080937A009D
:1008F00080917A00816080937A0080917A0080688C
:1009000080937A001092C100E0919A01F0919B01CE
:1009100082E08083E0919601F09197011082E0914E
:100920009801F091990180E180831092A201E091F9
:100930009E01F0919F0186E08083E0919C01F091FF
:100940009D01808180618083E0919C01F0919D01F7
:10095000808188608083E0919C01F0919D0180817D
:1009600080688083E0919C01F0919D0180818F7D62
:100970008083412C512C32014394CFE6D1E00E9478
:100980006D010091830210918402209185023091C3
:100990008602AB01BC01401B510B620B730B8091B3
:1009A0008F0290919002A0E0B0E084179507A6070F
:1009B000B70708F0D3C110E080918D02181760F4DA
:1009C000E0918902F0918A02E10FF11D62E08081DD
:1009D0000E9431011F5FF0CF912C80918E029816FA
:1009E00008F069C0092D10E0E0918B02F0918C02B3
:1009F000E00FF11F61E080810E943101E0918B02E4
:100A0000F0918C02E00FF11F60E080810E940101F3
:100A1000D301C201092C04C0880F991FAA1FBB1F54
:100A20000A94D2F76C017C01E094F094812C8091BF
:100A30008D02881648F5A82CB12CE0918902F0911E
:100A40008A02EA0DFB1D80810E94D80095012C5F6F
:100A50003F4F892B59F4C901880F991FFC01E95DAB
:100A6000FD4F808191818C299D290AC0C901880F81
:100A7000991FFC01E95DFD4F808191818E219F21AD
:100A8000918380838394D3CFE0918B02F0918C0289
:100A9000E00FF11F61E080810E94010180918B02D3
:100AA00090918C02FC01E00FF11F60E080810E94B8
:100AB0003101939492CFE3E4F2E08FEF9FEF238133
:100AC0003481232B21F41082928381831582369600
:100AD00022E0EF37F20799F7F12C66E0E62E8091DD
:100AE0008D02F81608F053C0D12C0F2D10E0000F26
:100AF000111F015D1D4F20918E02D21608F045C0D6
:100B0000F801608171810D2C02C0769567950A9479
:100B1000E2F761707727F29E900111242D0D311DAF
:100B2000E0918702F0918802E20FF31FA081E7E2D3
:100B3000F2E080E0458D568D4217530711F4617045
:100B40001AC08F5F36968A30A9F7672BE1F0E3E48D
:100B5000F2E080E090E04081411110C0E89EF00199
:100B6000E99EF00D1124E95DFD4FA48F368F258F8E
:100B700010A2178E61E00E94790105C00196369699
:100B80008A30910541F7D394B6CFF394A8CF80E093
:100B900090E010E0FC01E95DFD4F21A1211111E081
:100BA00006968C339105B1F70E946D016093830224
:100BB000709384028093850290938602112309F436
:100BC000CDC007E212E088E7E82E81E0F82E95EE2E
:100BD000B92E24E7C22E21E0D22E2224239432E023
:100BE000332E44E0942EF80181A1882309F4AFC08C
:100BF000878D90A18130910579F02CF4892B89F4AF
:100C0000909280010EC08230910549F0039749F41B
:100C1000F3E0F093800105C02092800102C0309281
:100C2000800180908001882D8D7F813009F08FC0F8
:100C3000F801A58CA0927F016A2D66956695669550
:100C400070E080E090E00E94E2060E941D070E9492
:100C5000B10660937E012A2DF8EF6F9F200D1124BD
:100C600020937D0188E0689FF0011124E20FF11DBF
:100C7000E05FFE4F808180937C01823E41F51F92B0
:100C8000BF921F928F92DF93CF93FF92EF920E94B9
:100C9000A90788E791E00E94EC021F92FFE1FF9311
:100CA000809180011F928F93DF93CF93DF92CF9239
:100CB0000E94A90784E791E00E94EC02EDB7FEB71D
:100CC00070960FB6F894FEBF0FBEEDBF40C08B3CD0
:100CD00041F51F92BF921F928F92DF93CF93FF92A5
:100CE000EF920E94A90788E791E00E94EC021F9210
:100CF00083E38F93809180011F928F93DF93CF9333
:100D0000DF92CF920E94A90784E791E00E94EC0253
:100D10008DB79EB740960FB6F8949EBF0FBE8DBF9D
:100D200016C01F928F931F928F92DF93CF93FF92E3
:100D3000EF920E94A90788E791E00E94EC028DB72C
:100D40009EB708960FB6F8949EBF0FBE8DBF0A5F80
:100D50001F4F92E00336190709F045CF0E94B302F6
:100D60000ECE0E94650788F09F5798F0B92F9927FB
:100D7000B751B0F0E1F0660F771F881F991F1AF086
:100D8000BA95C9F714C0B13091F00E949707B1E04D
:100D900008950C949707672F782F8827B85F39F04C
:100DA000B93FCCF3869577956795B395D9F73EF41F
:100DB00090958095709561957F4F8F4F9F4F0895C7
:100DC000E89409C097FB3EF49095809570956195E5
:100DD0007F4F8F4F9F4F9923A9F0F92F96E9BB279B
:100DE0009395F695879577956795B795F111F8CF17
:100DF000FAF4BB0F11F460FF1BC06F5F7F4F8F4F82
:100E00009F4F16C0882311F096E911C0772321F077
:100E10009EE8872F762F05C0662371F096E8862F0F
:100E200070E060E02AF09A95660F771F881FDAF766
:100E3000880F9695879597F908950E947F0790F0FF
:100E40009F3748F4911116F00C94980760E070E019
:100E500080E89FEB089526F41B16611D711D811D0E
:100E60000C9434070C944F07882371F4772321F0F6
:100E70009850872B762F07C0662311F499270DC051
:100E80009051862B70E060E02AF09A95660F771FEC
:100E9000881FDAF7880F9695879597F908959F3FF1
:100EA00031F0915020F4879577956795B795880F25
:100EB000911D9695879597F9089557FD9058440F81
:100EC000551F59F05F3F71F04795880F97FB991FA9
:100ED00061F09F3F79F08795089512161306140666
:100EE000551FF2CF4695F1DF08C0161617061806F3
:100EF000991FF1CF869571056105089408950E94A8
:100F00006507A0F0BEE7B91788F4BB279F3860F4E7
:100F10001616B11D672F782F8827985FF7CF869513
:100F200077956795B11D93959639C8F30895E89420
:100F3000BB2766277727CB0197F90895EE0FFF1F90
:100F40000590F491E02D099481E090E0F8940C94E0
:100F5000810AAEE0B0E0EFEAF7E00C94580A0D89A0
:100F60001E8986E08C831A8309838FEF9FE79E8317
:100F70008D83AE01475E5F4F6F89788DCE010196FC
:100F80000E94CC072F813885F801E20FF31F1082F1
:100F90002E96E4E00C94740AACE0B0E0E2EDF7E0E9
:100FA0000C944A0A7C016B018A01FC0117821682AB
:100FB000838181FFBDC1CE0101964C01F701938170
:100FC000F60193FD859193FF81916F01882309F4C8
:100FD000ABC1853239F493FD859193FF81916F0107
:100FE000853229F4B70190E00E94B409E7CF512C73
:100FF000312C20E02032A0F48B3269F030F48032C2
:1010000059F0833269F420612CC08D3239F080337D
:1010100039F4216026C02260246023C0286021C0EA
:1010200027FD27C030ED380F3A3078F426FF06C090
:10103000FAE05F9E300D1124532E13C08AE0389ED3
:10104000300D1124332E20620CC08E3221F426FD87
:101050006BC1206406C08C3611F4206802C088364B
:1010600041F4F60193FD859193FF81916F01811108
:10107000C1CF982F9F7D9554933028F40C5F1F4F5C
:10108000FFE3F9830DC0833631F0833771F0833588
:1010900009F05BC022C0F801808189830E5F1F4F79
:1010A00044244394512C540115C03801F2E06F0ED2
:1010B000711CF801A080B18026FF03C0652D70E08F
:1010C00002C06FEF7FEFC5012C870E94A9092C0198
:1010D00083012C852F77222E17C03801F2E06F0E86
:1010E000711CF801A080B18026FF03C0652D70E05F
:1010F00002C06FEF7FEFC5012C870E949E092C0173
:101100002C852068222E830123FC1BC0832D90E0B8
:1011100048165906B0F4B70180E290E00E94B40985
:101120003A94F4CFF50127FC859127FE81915F0168
:10113000B70190E00E94B40931103A94F1E04F1ADF
:1011400051084114510471F7E5C0843611F0893615
:1011500039F5F80127FF07C0608171818281938191
:101160000C5F1F4F08C060817181072E000C880B37
:10117000990B0E5F1F4F2F76722E97FF09C0909527
:101180008095709561957F4F8F4F9F4F2068722E8D
:101190002AE030E0A4010E94EC09A82EA81844C05F
:1011A000853729F42F7EB22E2AE030E025C0F22FB9
:1011B000F97FBF2E8F36C1F018F4883579F0B4C0AE
:1011C000803719F0883721F0AFC02F2F2061B22E61
:1011D000B4FE0DC08B2D8460B82E09C024FF0AC058
:1011E0009F2F9660B92E06C028E030E005C020E1B0
:1011F00030E002C020E132E0F801B7FE07C06081B4
:101200007181828193810C5F1F4F06C06081718163
:1012100080E090E00E5F1F4FA4010E94EC09A82E11
:10122000A818FB2DFF777F2E76FE0BC0372D3E7F53
:10123000A51450F474FE0AC072FC08C0372D3E7E1F
:1012400005C0BA2C372D03C0BA2C01C0B52C34FF11
:101250000DC0FE01EA0DF11D8081803311F4397E4D
:1012600009C032FF06C0B394B39404C0832F8678BC
:1012700009F0B39433FD13C030FF06C05A2CB314E9
:1012800018F4530C5B18B32CB31468F4B70180E264
:1012900090E03C870E94B409B3943C85F5CFB31429
:1012A00010F43B1801C0312C34FF12C0B70180E3A9
:1012B00090E03C870E94B4093C8532FF17C031FDA5
:1012C00003C088E790E002C088E590E0B7010CC059
:1012D000832F867859F031FF02C08BE201C080E293
:1012E00037FD8DE2B70190E00E94B409A51438F4EF
:1012F000B70180E390E00E94B4095A94F7CFAA9412
:10130000F401EA0DF11D8081B70190E00E94B4095B
:10131000A110F5CF332009F451CEB70180E290E05F
:101320000E94B4093A94F6CFF7018681978102C0F2
:101330008FEF9FEF2C96E2E10C94660AFC0105907A
:10134000615070400110D8F7809590958E0F9F1FC7
:101350000895FC016150704001900110D8F780950C
:1013600090958E0F9F1F08950F931F93CF93DF9338
:10137000FB01238121FD03C08FEF9FEF28C022FFD7
:1013800016C046815781248135814217530744F4A2
:10139000A081B1819D012F5F3F4F318320838C93CA
:1013A000268137812F5F3F4F3783268310C0EB01A3
:1013B000092F182F0084F185E02D0995892BE1F67E
:1013C0008E819F8101969F838E83812F902FDF9145
:1013D000CF911F910F910895FA01AA27283051F15A
:1013E000203181F1E8946F936E7F6E5F7F4F8F4F56
:1013F0009F4FAF4FB1E03ED0B4E03CD0670F781FB5
:10140000891F9A1FA11D680F791F8A1F911DA11D99
:101410006A0F711D811D911DA11D20D009F46894D2
:101420003F912AE0269F11243019305D3193DEF67A
:10143000CF010895462F4770405D4193B3E00FD030
:10144000C9F7F6CF462F4F70405D4A3318F0495D1B
:1014500031FD4052419302D0A9F7EACFB4E0A695FE
:101460009795879577956795BA95C9F70097610520
:10147000710508959B01AC010A2E06945795479576
:1014800037952795BA95C9F7620F731F841F951F6B
:10149000A01D08952F923F924F925F926F927F927C
:1014A0008F929F92AF92BF92CF92DF92EF92FF9274
:1014B0000F931F93CF93DF93CDB7DEB7CA1BDB0B20
:1014C0000FB6F894DEBF0FBECDBF09942A883988C5
:1014D00048885F846E847D848C849B84AA84B984CC
:1014E000C884DF80EE80FD800C811B81AA81B981D8
:1014F000CE0FD11D0FB6F894DEBF0FBECDBFED01EC
:061500000895F894FFCFEE
:101506000B0C0E0F10111213000405060708090A2A
:101516001E35E02B2CE3141F201A04E11D160821AA
:101526002215071B06091723241C0A19050B182563
:10153600260C0D11100E122757130F3637CBE25615
:1015460031553338E567294A2A284F513A3C3E40FF
:10155600000000004A02BD02E20191021302F101FD
:10156600050200000000D701DB01DF010D0A00259E
:04157600692569007A
:00000001FF
